{
  "_format": "hh-sol-artifact-1",
  "contractName": "Domains",
  "sourceName": "contracts/Domains.sol",
  "abi": [
    {
      "inputs": [
        {
          "internalType": "string",
          "name": "_ns",
          "type": "string"
        }
      ],
      "stateMutability": "payable",
      "type": "constructor"
    },
    {
      "anonymous": false,
      "inputs": [
        {
          "indexed": true,
          "internalType": "address",
          "name": "owner",
          "type": "address"
        },
        {
          "indexed": true,
          "internalType": "address",
          "name": "approved",
          "type": "address"
        },
        {
          "indexed": true,
          "internalType": "uint256",
          "name": "tokenId",
          "type": "uint256"
        }
      ],
      "name": "Approval",
      "type": "event"
    },
    {
      "anonymous": false,
      "inputs": [
        {
          "indexed": true,
          "internalType": "address",
          "name": "owner",
          "type": "address"
        },
        {
          "indexed": true,
          "internalType": "address",
          "name": "operator",
          "type": "address"
        },
        {
          "indexed": false,
          "internalType": "bool",
          "name": "approved",
          "type": "bool"
        }
      ],
      "name": "ApprovalForAll",
      "type": "event"
    },
    {
      "anonymous": false,
      "inputs": [
        {
          "indexed": true,
          "internalType": "address",
          "name": "from",
          "type": "address"
        },
        {
          "indexed": true,
          "internalType": "address",
          "name": "to",
          "type": "address"
        },
        {
          "indexed": true,
          "internalType": "uint256",
          "name": "tokenId",
          "type": "uint256"
        }
      ],
      "name": "Transfer",
      "type": "event"
    },
    {
      "inputs": [
        {
          "internalType": "address",
          "name": "to",
          "type": "address"
        },
        {
          "internalType": "uint256",
          "name": "tokenId",
          "type": "uint256"
        }
      ],
      "name": "approve",
      "outputs": [],
      "stateMutability": "nonpayable",
      "type": "function"
    },
    {
      "inputs": [
        {
          "internalType": "address",
          "name": "owner",
          "type": "address"
        }
      ],
      "name": "balanceOf",
      "outputs": [
        {
          "internalType": "uint256",
          "name": "",
          "type": "uint256"
        }
      ],
      "stateMutability": "view",
      "type": "function"
    },
    {
      "inputs": [
        {
          "internalType": "string",
          "name": "",
          "type": "string"
        }
      ],
      "name": "domains",
      "outputs": [
        {
          "internalType": "address",
          "name": "",
          "type": "address"
        }
      ],
      "stateMutability": "view",
      "type": "function"
    },
    {
      "inputs": [
        {
          "internalType": "string",
          "name": "name",
          "type": "string"
        }
      ],
      "name": "getAddress",
      "outputs": [
        {
          "internalType": "address",
          "name": "",
          "type": "address"
        }
      ],
      "stateMutability": "view",
      "type": "function"
    },
    {
      "inputs": [
        {
          "internalType": "uint256",
          "name": "tokenId",
          "type": "uint256"
        }
      ],
      "name": "getApproved",
      "outputs": [
        {
          "internalType": "address",
          "name": "",
          "type": "address"
        }
      ],
      "stateMutability": "view",
      "type": "function"
    },
    {
      "inputs": [
        {
          "internalType": "string",
          "name": "name",
          "type": "string"
        }
      ],
      "name": "getRecord",
      "outputs": [
        {
          "internalType": "string",
          "name": "",
          "type": "string"
        }
      ],
      "stateMutability": "view",
      "type": "function"
    },
    {
      "inputs": [
        {
          "internalType": "address",
          "name": "owner",
          "type": "address"
        },
        {
          "internalType": "address",
          "name": "operator",
          "type": "address"
        }
      ],
      "name": "isApprovedForAll",
      "outputs": [
        {
          "internalType": "bool",
          "name": "",
          "type": "bool"
        }
      ],
      "stateMutability": "view",
      "type": "function"
    },
    {
      "inputs": [],
      "name": "name",
      "outputs": [
        {
          "internalType": "string",
          "name": "",
          "type": "string"
        }
      ],
      "stateMutability": "view",
      "type": "function"
    },
    {
      "inputs": [],
      "name": "ns",
      "outputs": [
        {
          "internalType": "string",
          "name": "",
          "type": "string"
        }
      ],
      "stateMutability": "view",
      "type": "function"
    },
    {
      "inputs": [
        {
          "internalType": "uint256",
          "name": "tokenId",
          "type": "uint256"
        }
      ],
      "name": "ownerOf",
      "outputs": [
        {
          "internalType": "address",
          "name": "",
          "type": "address"
        }
      ],
      "stateMutability": "view",
      "type": "function"
    },
    {
      "inputs": [
        {
          "internalType": "string",
          "name": "name",
          "type": "string"
        }
      ],
      "name": "price",
      "outputs": [
        {
          "internalType": "uint256",
          "name": "",
          "type": "uint256"
        }
      ],
      "stateMutability": "pure",
      "type": "function"
    },
    {
      "inputs": [
        {
          "internalType": "string",
          "name": "",
          "type": "string"
        }
      ],
      "name": "records",
      "outputs": [
        {
          "internalType": "string",
          "name": "",
          "type": "string"
        }
      ],
      "stateMutability": "view",
      "type": "function"
    },
    {
      "inputs": [
        {
          "internalType": "string",
          "name": "name",
          "type": "string"
        }
      ],
      "name": "register",
      "outputs": [],
      "stateMutability": "payable",
      "type": "function"
    },
    {
      "inputs": [
        {
          "internalType": "address",
          "name": "from",
          "type": "address"
        },
        {
          "internalType": "address",
          "name": "to",
          "type": "address"
        },
        {
          "internalType": "uint256",
          "name": "tokenId",
          "type": "uint256"
        }
      ],
      "name": "safeTransferFrom",
      "outputs": [],
      "stateMutability": "nonpayable",
      "type": "function"
    },
    {
      "inputs": [
        {
          "internalType": "address",
          "name": "from",
          "type": "address"
        },
        {
          "internalType": "address",
          "name": "to",
          "type": "address"
        },
        {
          "internalType": "uint256",
          "name": "tokenId",
          "type": "uint256"
        },
        {
          "internalType": "bytes",
          "name": "_data",
          "type": "bytes"
        }
      ],
      "name": "safeTransferFrom",
      "outputs": [],
      "stateMutability": "nonpayable",
      "type": "function"
    },
    {
      "inputs": [
        {
          "internalType": "address",
          "name": "operator",
          "type": "address"
        },
        {
          "internalType": "bool",
          "name": "approved",
          "type": "bool"
        }
      ],
      "name": "setApprovalForAll",
      "outputs": [],
      "stateMutability": "nonpayable",
      "type": "function"
    },
    {
      "inputs": [
        {
          "internalType": "string",
          "name": "name",
          "type": "string"
        },
        {
          "internalType": "string",
          "name": "record",
          "type": "string"
        }
      ],
      "name": "setRecord",
      "outputs": [],
      "stateMutability": "nonpayable",
      "type": "function"
    },
    {
      "inputs": [
        {
          "internalType": "bytes4",
          "name": "interfaceId",
          "type": "bytes4"
        }
      ],
      "name": "supportsInterface",
      "outputs": [
        {
          "internalType": "bool",
          "name": "",
          "type": "bool"
        }
      ],
      "stateMutability": "view",
      "type": "function"
    },
    {
      "inputs": [],
      "name": "symbol",
      "outputs": [
        {
          "internalType": "string",
          "name": "",
          "type": "string"
        }
      ],
      "stateMutability": "view",
      "type": "function"
    },
    {
      "inputs": [
        {
          "internalType": "uint256",
          "name": "tokenId",
          "type": "uint256"
        }
      ],
      "name": "tokenURI",
      "outputs": [
        {
          "internalType": "string",
          "name": "",
          "type": "string"
        }
      ],
      "stateMutability": "view",
      "type": "function"
    },
    {
      "inputs": [
        {
          "internalType": "address",
          "name": "from",
          "type": "address"
        },
        {
          "internalType": "address",
          "name": "to",
          "type": "address"
        },
        {
          "internalType": "uint256",
          "name": "tokenId",
          "type": "uint256"
        }
      ],
      "name": "transferFrom",
      "outputs": [],
      "stateMutability": "nonpayable",
      "type": "function"
    }
  ],
  "bytecode": "0x6080604052604051806108a0016040528061086b815260200162004aa861086b9139600990805190602001906200003892919062000287565b506040518060400160405280600d81526020017f3c2f746578743e3c2f7376673e00000000000000000000000000000000000000815250600a90805190602001906200008692919062000287565b5060405162005313380380620053138339818101604052810190620000ac9190620004d4565b6040518060400160405280600d81526020017f766f6c747a20646f6d61696e73000000000000000000000000000000000000008152506040518060400160405280600381526020017f56545a000000000000000000000000000000000000000000000000000000000081525081600090805190602001906200013092919062000287565b5080600190805190602001906200014992919062000287565b50505080600890805190602001906200016492919062000287565b50620001b16040518060400160405280600c81526020017f257320444f4d41494e533a3a000000000000000000000000000000000000000081525082620001b860201b620015aa1760201c565b5062000622565b6200025a8282604051602401620001d192919062000582565b6040516020818303038152906040527f4b5c4277000000000000000000000000000000000000000000000000000000007bffffffffffffffffffffffffffffffffffffffffffffffffffffffff19166020820180517bffffffffffffffffffffffffffffffffffffffffffffffffffffffff83818316178352505050506200025e60201b60201c565b5050565b60008151905060006a636f6e736f6c652e6c6f679050602083016000808483855afa5050505050565b8280546200029590620005ec565b90600052602060002090601f016020900481019282620002b9576000855562000305565b82601f10620002d457805160ff191683800117855562000305565b8280016001018555821562000305579182015b8281111562000304578251825591602001919060010190620002e7565b5b50905062000314919062000318565b5090565b5b808211156200033357600081600090555060010162000319565b5090565b6000604051905090565b600080fd5b600080fd5b600080fd5b600080fd5b6000601f19601f8301169050919050565b7f4e487b7100000000000000000000000000000000000000000000000000000000600052604160045260246000fd5b620003a08262000355565b810181811067ffffffffffffffff82111715620003c257620003c162000366565b5b80604052505050565b6000620003d762000337565b9050620003e5828262000395565b919050565b600067ffffffffffffffff82111562000408576200040762000366565b5b620004138262000355565b9050602081019050919050565b60005b838110156200044057808201518184015260208101905062000423565b8381111562000450576000848401525b50505050565b60006200046d6200046784620003ea565b620003cb565b9050828152602081018484840111156200048c576200048b62000350565b5b6200049984828562000420565b509392505050565b600082601f830112620004b957620004b86200034b565b5b8151620004cb84826020860162000456565b91505092915050565b600060208284031215620004ed57620004ec62000341565b5b600082015167ffffffffffffffff8111156200050e576200050d62000346565b5b6200051c84828501620004a1565b91505092915050565b600081519050919050565b600082825260208201905092915050565b60006200054e8262000525565b6200055a818562000530565b93506200056c81856020860162000420565b620005778162000355565b840191505092915050565b600060408201905081810360008301526200059e818562000541565b90508181036020830152620005b4818462000541565b90509392505050565b7f4e487b7100000000000000000000000000000000000000000000000000000000600052602260045260246000fd5b600060028204905060018216806200060557607f821691505b602082108114156200061c576200061b620005bd565b5b50919050565b61447680620006326000396000f3fe60806040526004361061012a5760003560e01c80636352211e116100ab578063bf40fac11161006f578063bf40fac114610428578063c1880a9814610465578063c87b56dd1461048e578063e985e9c5146104cb578063f2c298be14610508578063fe2c6198146105245761012a565b80636352211e1461033157806370a082311461036e57806395d89b41146103ab578063a22cb465146103d6578063b88d4fde146103ff5761012a565b806323b872dd116100f257806323b872dd1461023a578063264492351461026357806342842e0e146102a0578063541e771d146102c9578063618dcd05146103065761012a565b806301ffc9a71461012f57806306fdde031461016c578063081812fc14610197578063095ea7b3146101d457806311dd8845146101fd575b600080fd5b34801561013b57600080fd5b5061015660048036038101906101519190612a8c565b610561565b6040516101639190612ad4565b60405180910390f35b34801561017857600080fd5b50610181610643565b60405161018e9190612b88565b60405180910390f35b3480156101a357600080fd5b506101be60048036038101906101b99190612be0565b6106d5565b6040516101cb9190612c4e565b60405180910390f35b3480156101e057600080fd5b506101fb60048036038101906101f69190612c95565b61075a565b005b34801561020957600080fd5b50610224600480360381019061021f9190612d3a565b610872565b6040516102319190612b88565b60405180910390f35b34801561024657600080fd5b50610261600480360381019061025c9190612d87565b610925565b005b34801561026f57600080fd5b5061028a60048036038101906102859190612f0a565b610985565b6040516102979190612c4e565b60405180910390f35b3480156102ac57600080fd5b506102c760048036038101906102c29190612d87565b6109ce565b005b3480156102d557600080fd5b506102f060048036038101906102eb9190612f0a565b6109ee565b6040516102fd9190612b88565b60405180910390f35b34801561031257600080fd5b5061031b610aa4565b6040516103289190612b88565b60405180910390f35b34801561033d57600080fd5b5061035860048036038101906103539190612be0565b610b32565b6040516103659190612c4e565b60405180910390f35b34801561037a57600080fd5b5061039560048036038101906103909190612f53565b610be4565b6040516103a29190612f8f565b60405180910390f35b3480156103b757600080fd5b506103c0610c9c565b6040516103cd9190612b88565b60405180910390f35b3480156103e257600080fd5b506103fd60048036038101906103f89190612fd6565b610d2e565b005b34801561040b57600080fd5b50610426600480360381019061042191906130b7565b610d44565b005b34801561043457600080fd5b5061044f600480360381019061044a9190612d3a565b610da6565b60405161045c9190612c4e565b60405180910390f35b34801561047157600080fd5b5061048c6004803603810190610487919061313a565b610df1565b005b34801561049a57600080fd5b506104b560048036038101906104b09190612be0565b610e9f565b6040516104c29190612b88565b60405180910390f35b3480156104d757600080fd5b506104f260048036038101906104ed91906131bb565b610ff1565b6040516104ff9190612ad4565b60405180910390f35b610522600480360381019061051d9190612d3a565b611085565b005b34801561053057600080fd5b5061054b60048036038101906105469190612d3a565b611504565b6040516105589190612f8f565b60405180910390f35b60007f80ac58cd000000000000000000000000000000000000000000000000000000007bffffffffffffffffffffffffffffffffffffffffffffffffffffffff1916827bffffffffffffffffffffffffffffffffffffffffffffffffffffffff1916148061062c57507f5b5e139f000000000000000000000000000000000000000000000000000000007bffffffffffffffffffffffffffffffffffffffffffffffffffffffff1916827bffffffffffffffffffffffffffffffffffffffffffffffffffffffff1916145b8061063c575061063b82611646565b5b9050919050565b6060600080546106529061322a565b80601f016020809104026020016040519081016040528092919081815260200182805461067e9061322a565b80156106cb5780601f106106a0576101008083540402835291602001916106cb565b820191906000526020600020905b8154815290600101906020018083116106ae57829003601f168201915b5050505050905090565b60006106e0826116b0565b61071f576040517f08c379a0000000000000000000000000000000000000000000000000000000008152600401610716906132ce565b60405180910390fd5b6004600083815260200190815260200160002060009054906101000a900473ffffffffffffffffffffffffffffffffffffffff169050919050565b600061076582610b32565b90508073ffffffffffffffffffffffffffffffffffffffff168373ffffffffffffffffffffffffffffffffffffffff1614156107d6576040517f08c379a00000000000000000000000000000000000000000000000000000000081526004016107cd90613360565b60405180910390fd5b8073ffffffffffffffffffffffffffffffffffffffff166107f561171c565b73ffffffffffffffffffffffffffffffffffffffff16148061082457506108238161081e61171c565b610ff1565b5b610863576040517f08c379a000000000000000000000000000000000000000000000000000000000815260040161085a906133f2565b60405180910390fd5b61086d8383611724565b505050565b6060600c8383604051610886929190613442565b9081526020016040518091039020805461089f9061322a565b80601f01602080910402602001604051908101604052809291908181526020018280546108cb9061322a565b80156109185780601f106108ed57610100808354040283529160200191610918565b820191906000526020600020905b8154815290600101906020018083116108fb57829003601f168201915b5050505050905092915050565b61093661093061171c565b826117dd565b610975576040517f08c379a000000000000000000000000000000000000000000000000000000000815260040161096c906134cd565b60405180910390fd5b6109808383836118bb565b505050565b600b818051602081018201805184825260208301602085012081835280955050505050506000915054906101000a900473ffffffffffffffffffffffffffffffffffffffff1681565b6109e983838360405180602001604052806000815250610d44565b505050565b600c818051602081018201805184825260208301602085012081835280955050505050506000915090508054610a239061322a565b80601f0160208091040260200160405190810160405280929190818152602001828054610a4f9061322a565b8015610a9c5780601f10610a7157610100808354040283529160200191610a9c565b820191906000526020600020905b815481529060010190602001808311610a7f57829003601f168201915b505050505081565b60088054610ab19061322a565b80601f0160208091040260200160405190810160405280929190818152602001828054610add9061322a565b8015610b2a5780601f10610aff57610100808354040283529160200191610b2a565b820191906000526020600020905b815481529060010190602001808311610b0d57829003601f168201915b505050505081565b6000806002600084815260200190815260200160002060009054906101000a900473ffffffffffffffffffffffffffffffffffffffff169050600073ffffffffffffffffffffffffffffffffffffffff168173ffffffffffffffffffffffffffffffffffffffff161415610bdb576040517f08c379a0000000000000000000000000000000000000000000000000000000008152600401610bd29061355f565b60405180910390fd5b80915050919050565b60008073ffffffffffffffffffffffffffffffffffffffff168273ffffffffffffffffffffffffffffffffffffffff161415610c55576040517f08c379a0000000000000000000000000000000000000000000000000000000008152600401610c4c906135f1565b60405180910390fd5b600360008373ffffffffffffffffffffffffffffffffffffffff1673ffffffffffffffffffffffffffffffffffffffff168152602001908152602001600020549050919050565b606060018054610cab9061322a565b80601f0160208091040260200160405190810160405280929190818152602001828054610cd79061322a565b8015610d245780601f10610cf957610100808354040283529160200191610d24565b820191906000526020600020905b815481529060010190602001808311610d0757829003601f168201915b5050505050905090565b610d40610d3961171c565b8383611b22565b5050565b610d55610d4f61171c565b836117dd565b610d94576040517f08c379a0000000000000000000000000000000000000000000000000000000008152600401610d8b906134cd565b60405180910390fd5b610da084848484611c8f565b50505050565b6000600b8383604051610dba929190613442565b908152602001604051809103902060009054906101000a900473ffffffffffffffffffffffffffffffffffffffff16905092915050565b3373ffffffffffffffffffffffffffffffffffffffff16600b8585604051610e1a929190613442565b908152602001604051809103902060009054906101000a900473ffffffffffffffffffffffffffffffffffffffff1673ffffffffffffffffffffffffffffffffffffffff1614610e6957600080fd5b8181600c8686604051610e7d929190613442565b90815260200160405180910390209190610e989291906128f7565b5050505050565b6060610eaa826116b0565b610ee9576040517f08c379a0000000000000000000000000000000000000000000000000000000008152600401610ee090613683565b60405180910390fd5b6000600660008481526020019081526020016000208054610f099061322a565b80601f0160208091040260200160405190810160405280929190818152602001828054610f359061322a565b8015610f825780601f10610f5757610100808354040283529160200191610f82565b820191906000526020600020905b815481529060010190602001808311610f6557829003601f168201915b505050505090506000610f93611ceb565b9050600081511415610fa9578192505050610fec565b600082511115610fde578082604051602001610fc69291906136d4565b60405160208183030381529060405292505050610fec565b610fe784611d02565b925050505b919050565b6000600560008473ffffffffffffffffffffffffffffffffffffffff1673ffffffffffffffffffffffffffffffffffffffff16815260200190815260200160002060008373ffffffffffffffffffffffffffffffffffffffff1673ffffffffffffffffffffffffffffffffffffffff16815260200190815260200160002060009054906101000a900460ff16905092915050565b600073ffffffffffffffffffffffffffffffffffffffff16600b83836040516110af929190613442565b908152602001604051809103902060009054906101000a900473ffffffffffffffffffffffffffffffffffffffff1673ffffffffffffffffffffffffffffffffffffffff16146110fe57600080fd5b600061110a8383611504565b90508034101561114f576040517f08c379a000000000000000000000000000000000000000000000000000000000815260040161114690613744565b60405180910390fd5b60008383600860405160200161116793929190613844565b60405160208183030381529060405290506000600982600a60405160200161119193929190613875565b604051602081830303815290604052905060006111ae6007611da9565b905060006111ff87878080601f016020809104026020016040519081016040528093929190818152602001838380828437600081840152601f19601f82011690508083019250505050505050611db7565b9050600061120c82611f6c565b905033600b8989604051611221929190613442565b908152602001604051809103902060006101000a81548173ffffffffffffffffffffffffffffffffffffffff021916908373ffffffffffffffffffffffffffffffffffffffff1602179055506112ac6040518060400160405280601b81526020017f2573206861732072656769737465726564206120646f6d61696e210000000000815250336120cd565b61139e6040518060600160405280603181526020016143976031913989898080601f016020809104026020016040519081016040528093929190818152602001838380828437600081840152601f19601f820116905080830192505050505050506008805461131a9061322a565b80601f01602080910402602001604051908101604052809291908181526020018280546113469061322a565b80156113935780601f1061136857610100808354040283529160200191611393565b820191906000526020600020905b81548152906001019060200180831161137657829003601f168201915b505050505086612169565b60006113d4866113ad8761220b565b846040516020016113c093929190613a22565b60405160208183030381529060405261220b565b90506000816040516020016113e99190613acb565b604051602081830303815290604052905061141b60405180606001604052806039815260200161435e603991396123a3565b61145a6040518060400160405280600e81526020017f46696e616c20746f6b656e555249000000000000000000000000000000000000815250826115aa565b61147b6040518060600160405280603981526020016143c8603991396123a3565b611485338661243c565b61148f858261245a565b33600b8b8b6040516114a2929190613442565b908152602001604051809103902060006101000a81548173ffffffffffffffffffffffffffffffffffffffff021916908373ffffffffffffffffffffffffffffffffffffffff1602179055506114f860076124ce565b50505050505050505050565b60008061155484848080601f016020809104026020016040519081016040528093929190818152602001838380828437600081840152601f19601f82011690508083019250505050505050611db7565b90506000811161156357600080fd5b600381141561157d5767016345785d8a00009150506115a4565b60048114156115975767016345785d8a00009150506115a4565b67016345785d8a00009150505b92915050565b61164282826040516024016115c0929190613aed565b6040516020818303038152906040527f4b5c4277000000000000000000000000000000000000000000000000000000007bffffffffffffffffffffffffffffffffffffffffffffffffffffffff19166020820180517bffffffffffffffffffffffffffffffffffffffffffffffffffffffff83818316178352505050506124e4565b5050565b60007f01ffc9a7000000000000000000000000000000000000000000000000000000007bffffffffffffffffffffffffffffffffffffffffffffffffffffffff1916827bffffffffffffffffffffffffffffffffffffffffffffffffffffffff1916149050919050565b60008073ffffffffffffffffffffffffffffffffffffffff166002600084815260200190815260200160002060009054906101000a900473ffffffffffffffffffffffffffffffffffffffff1673ffffffffffffffffffffffffffffffffffffffff1614159050919050565b600033905090565b816004600083815260200190815260200160002060006101000a81548173ffffffffffffffffffffffffffffffffffffffff021916908373ffffffffffffffffffffffffffffffffffffffff160217905550808273ffffffffffffffffffffffffffffffffffffffff1661179783610b32565b73ffffffffffffffffffffffffffffffffffffffff167f8c5be1e5ebec7d5bd14f71427d1e84f3dd0314c0f7b2291e5b200ac8c7c3b92560405160405180910390a45050565b60006117e8826116b0565b611827576040517f08c379a000000000000000000000000000000000000000000000000000000000815260040161181e90613b96565b60405180910390fd5b600061183283610b32565b90508073ffffffffffffffffffffffffffffffffffffffff168473ffffffffffffffffffffffffffffffffffffffff16148061187457506118738185610ff1565b5b806118b257508373ffffffffffffffffffffffffffffffffffffffff1661189a846106d5565b73ffffffffffffffffffffffffffffffffffffffff16145b91505092915050565b8273ffffffffffffffffffffffffffffffffffffffff166118db82610b32565b73ffffffffffffffffffffffffffffffffffffffff1614611931576040517f08c379a000000000000000000000000000000000000000000000000000000000815260040161192890613c28565b60405180910390fd5b600073ffffffffffffffffffffffffffffffffffffffff168273ffffffffffffffffffffffffffffffffffffffff1614156119a1576040517f08c379a000000000000000000000000000000000000000000000000000000000815260040161199890613cba565b60405180910390fd5b6119ac83838361250d565b6119b7600082611724565b6001600360008573ffffffffffffffffffffffffffffffffffffffff1673ffffffffffffffffffffffffffffffffffffffff1681526020019081526020016000206000828254611a079190613d09565b925050819055506001600360008473ffffffffffffffffffffffffffffffffffffffff1673ffffffffffffffffffffffffffffffffffffffff1681526020019081526020016000206000828254611a5e9190613d3d565b92505081905550816002600083815260200190815260200160002060006101000a81548173ffffffffffffffffffffffffffffffffffffffff021916908373ffffffffffffffffffffffffffffffffffffffff160217905550808273ffffffffffffffffffffffffffffffffffffffff168473ffffffffffffffffffffffffffffffffffffffff167fddf252ad1be2c89b69c2b068fc378daa952ba7f163c4a11628f55a4df523b3ef60405160405180910390a4611b1d838383612512565b505050565b8173ffffffffffffffffffffffffffffffffffffffff168373ffffffffffffffffffffffffffffffffffffffff161415611b91576040517f08c379a0000000000000000000000000000000000000000000000000000000008152600401611b8890613ddf565b60405180910390fd5b80600560008573ffffffffffffffffffffffffffffffffffffffff1673ffffffffffffffffffffffffffffffffffffffff16815260200190815260200160002060008473ffffffffffffffffffffffffffffffffffffffff1673ffffffffffffffffffffffffffffffffffffffff16815260200190815260200160002060006101000a81548160ff0219169083151502179055508173ffffffffffffffffffffffffffffffffffffffff168373ffffffffffffffffffffffffffffffffffffffff167f17307eab39ab6107e8899845ad3d59bd9653f200f220920489ca2b5937696c3183604051611c829190612ad4565b60405180910390a3505050565b611c9a8484846118bb565b611ca684848484612517565b611ce5576040517f08c379a0000000000000000000000000000000000000000000000000000000008152600401611cdc90613e71565b60405180910390fd5b50505050565b606060405180602001604052806000815250905090565b6060611d0d826116b0565b611d4c576040517f08c379a0000000000000000000000000000000000000000000000000000000008152600401611d4390613f03565b60405180910390fd5b6000611d56611ceb565b90506000815111611d765760405180602001604052806000815250611da1565b80611d8084611f6c565b604051602001611d919291906136d4565b6040516020818303038152906040525b915050919050565b600081600001549050919050565b60008060008084519050600092505b80821015611f61576000858381518110611de357611de2613f23565b5b602001015160f81c60f81b9050608060f81b817effffffffffffffffffffffffffffffffffffffffffffffffffffffffffffff19161015611e3257600183611e2b9190613d3d565b9250611f4d565b60e060f81b817effffffffffffffffffffffffffffffffffffffffffffffffffffffffffffff19161015611e7457600283611e6d9190613d3d565b9250611f4c565b60f060f81b817effffffffffffffffffffffffffffffffffffffffffffffffffffffffffffff19161015611eb657600383611eaf9190613d3d565b9250611f4b565b60f8801b817effffffffffffffffffffffffffffffffffffffffffffffffffffffffffffff19161015611ef757600483611ef09190613d3d565b9250611f4a565b60fc60f81b817effffffffffffffffffffffffffffffffffffffffffffffffffffffffffffff19161015611f3957600583611f329190613d3d565b9250611f49565b600683611f469190613d3d565b92505b5b5b5b5b508280611f5990613f52565b935050611dc6565b829350505050919050565b60606000821415611fb4576040518060400160405280600181526020017f300000000000000000000000000000000000000000000000000000000000000081525090506120c8565b600082905060005b60008214611fe6578080611fcf90613f52565b915050600a82611fdf9190613fca565b9150611fbc565b60008167ffffffffffffffff81111561200257612001612ddf565b5b6040519080825280601f01601f1916602001820160405280156120345781602001600182028036833780820191505090505b5090505b600085146120c15760018261204d9190613d09565b9150600a8561205c9190613ffb565b60306120689190613d3d565b60f81b81838151811061207e5761207d613f23565b5b60200101907effffffffffffffffffffffffffffffffffffffffffffffffffffffffffffff1916908160001a905350600a856120ba9190613fca565b9450612038565b8093505050505b919050565b61216582826040516024016120e392919061402c565b6040516020818303038152906040527f319af333000000000000000000000000000000000000000000000000000000007bffffffffffffffffffffffffffffffffffffffffffffffffffffffff19166020820180517bffffffffffffffffffffffffffffffffffffffffffffffffffffffff83818316178352505050506124e4565b5050565b61220584848484604051602401612183949392919061405c565b6040516020818303038152906040527f9fd009f5000000000000000000000000000000000000000000000000000000007bffffffffffffffffffffffffffffffffffffffffffffffffffffffff19166020820180517bffffffffffffffffffffffffffffffffffffffffffffffffffffffff83818316178352505050506124e4565b50505050565b60606000825190506000811415612234576040518060200160405280600081525091505061239e565b600060036002836122459190613d3d565b61224f9190613fca565b600461225b91906140b6565b9050600060208261226c9190613d3d565b67ffffffffffffffff81111561228557612284612ddf565b5b6040519080825280601f01601f1916602001820160405280156122b75781602001600182028036833780820191505090505b5090506000604051806060016040528060408152602001614401604091399050600181016020830160005b8681101561235b5760038101905062ffffff818a015116603f8160121c168401518060081b905060ff603f83600c1c1686015116810190508060081b905060ff603f8360061c1686015116810190508060081b905060ff603f831686015116810190508060e01b905080845260048401935050506122e2565b506003860660018114612375576002811461238557612390565b613d3d60f01b6002830352612390565b603d60f81b60018303525b508484525050819450505050505b919050565b612439816040516024016123b79190612b88565b6040516020818303038152906040527f41304fac000000000000000000000000000000000000000000000000000000007bffffffffffffffffffffffffffffffffffffffffffffffffffffffff19166020820180517bffffffffffffffffffffffffffffffffffffffffffffffffffffffff83818316178352505050506124e4565b50565b61245682826040518060200160405280600081525061269f565b5050565b612463826116b0565b6124a2576040517f08c379a000000000000000000000000000000000000000000000000000000000815260040161249990614182565b60405180910390fd5b806006600084815260200190815260200160002090805190602001906124c992919061297d565b505050565b6001816000016000828254019250508190555050565b60008151905060006a636f6e736f6c652e6c6f679050602083016000808483855afa5050505050565b505050565b505050565b60006125388473ffffffffffffffffffffffffffffffffffffffff166126fa565b15612692578373ffffffffffffffffffffffffffffffffffffffff1663150b7a0261256161171c565b8786866040518563ffffffff1660e01b815260040161258394939291906141f7565b6020604051808303816000875af19250505080156125bf57506040513d601f19601f820116820180604052508101906125bc9190614258565b60015b612642573d80600081146125ef576040519150601f19603f3d011682016040523d82523d6000602084013e6125f4565b606091505b5060008151141561263a576040517f08c379a000000000000000000000000000000000000000000000000000000000815260040161263190613e71565b60405180910390fd5b805181602001fd5b63150b7a0260e01b7bffffffffffffffffffffffffffffffffffffffffffffffffffffffff1916817bffffffffffffffffffffffffffffffffffffffffffffffffffffffff191614915050612697565b600190505b949350505050565b6126a9838361271d565b6126b66000848484612517565b6126f5576040517f08c379a00000000000000000000000000000000000000000000000000000000081526004016126ec90613e71565b60405180910390fd5b505050565b6000808273ffffffffffffffffffffffffffffffffffffffff163b119050919050565b600073ffffffffffffffffffffffffffffffffffffffff168273ffffffffffffffffffffffffffffffffffffffff16141561278d576040517f08c379a0000000000000000000000000000000000000000000000000000000008152600401612784906142d1565b60405180910390fd5b612796816116b0565b156127d6576040517f08c379a00000000000000000000000000000000000000000000000000000000081526004016127cd9061433d565b60405180910390fd5b6127e26000838361250d565b6001600360008473ffffffffffffffffffffffffffffffffffffffff1673ffffffffffffffffffffffffffffffffffffffff16815260200190815260200160002060008282546128329190613d3d565b92505081905550816002600083815260200190815260200160002060006101000a81548173ffffffffffffffffffffffffffffffffffffffff021916908373ffffffffffffffffffffffffffffffffffffffff160217905550808273ffffffffffffffffffffffffffffffffffffffff16600073ffffffffffffffffffffffffffffffffffffffff167fddf252ad1be2c89b69c2b068fc378daa952ba7f163c4a11628f55a4df523b3ef60405160405180910390a46128f360008383612512565b5050565b8280546129039061322a565b90600052602060002090601f016020900481019282612925576000855561296c565b82601f1061293e57803560ff191683800117855561296c565b8280016001018555821561296c579182015b8281111561296b578235825591602001919060010190612950565b5b5090506129799190612a03565b5090565b8280546129899061322a565b90600052602060002090601f0160209004810192826129ab57600085556129f2565b82601f106129c457805160ff19168380011785556129f2565b828001600101855582156129f2579182015b828111156129f15782518255916020019190600101906129d6565b5b5090506129ff9190612a03565b5090565b5b80821115612a1c576000816000905550600101612a04565b5090565b6000604051905090565b600080fd5b600080fd5b60007fffffffff0000000000000000000000000000000000000000000000000000000082169050919050565b612a6981612a34565b8114612a7457600080fd5b50565b600081359050612a8681612a60565b92915050565b600060208284031215612aa257612aa1612a2a565b5b6000612ab084828501612a77565b91505092915050565b60008115159050919050565b612ace81612ab9565b82525050565b6000602082019050612ae96000830184612ac5565b92915050565b600081519050919050565b600082825260208201905092915050565b60005b83811015612b29578082015181840152602081019050612b0e565b83811115612b38576000848401525b50505050565b6000601f19601f8301169050919050565b6000612b5a82612aef565b612b648185612afa565b9350612b74818560208601612b0b565b612b7d81612b3e565b840191505092915050565b60006020820190508181036000830152612ba28184612b4f565b905092915050565b6000819050919050565b612bbd81612baa565b8114612bc857600080fd5b50565b600081359050612bda81612bb4565b92915050565b600060208284031215612bf657612bf5612a2a565b5b6000612c0484828501612bcb565b91505092915050565b600073ffffffffffffffffffffffffffffffffffffffff82169050919050565b6000612c3882612c0d565b9050919050565b612c4881612c2d565b82525050565b6000602082019050612c636000830184612c3f565b92915050565b612c7281612c2d565b8114612c7d57600080fd5b50565b600081359050612c8f81612c69565b92915050565b60008060408385031215612cac57612cab612a2a565b5b6000612cba85828601612c80565b9250506020612ccb85828601612bcb565b9150509250929050565b600080fd5b600080fd5b600080fd5b60008083601f840112612cfa57612cf9612cd5565b5b8235905067ffffffffffffffff811115612d1757612d16612cda565b5b602083019150836001820283011115612d3357612d32612cdf565b5b9250929050565b60008060208385031215612d5157612d50612a2a565b5b600083013567ffffffffffffffff811115612d6f57612d6e612a2f565b5b612d7b85828601612ce4565b92509250509250929050565b600080600060608486031215612da057612d9f612a2a565b5b6000612dae86828701612c80565b9350506020612dbf86828701612c80565b9250506040612dd086828701612bcb565b9150509250925092565b600080fd5b7f4e487b7100000000000000000000000000000000000000000000000000000000600052604160045260246000fd5b612e1782612b3e565b810181811067ffffffffffffffff82111715612e3657612e35612ddf565b5b80604052505050565b6000612e49612a20565b9050612e558282612e0e565b919050565b600067ffffffffffffffff821115612e7557612e74612ddf565b5b612e7e82612b3e565b9050602081019050919050565b82818337600083830152505050565b6000612ead612ea884612e5a565b612e3f565b905082815260208101848484011115612ec957612ec8612dda565b5b612ed4848285612e8b565b509392505050565b600082601f830112612ef157612ef0612cd5565b5b8135612f01848260208601612e9a565b91505092915050565b600060208284031215612f2057612f1f612a2a565b5b600082013567ffffffffffffffff811115612f3e57612f3d612a2f565b5b612f4a84828501612edc565b91505092915050565b600060208284031215612f6957612f68612a2a565b5b6000612f7784828501612c80565b91505092915050565b612f8981612baa565b82525050565b6000602082019050612fa46000830184612f80565b92915050565b612fb381612ab9565b8114612fbe57600080fd5b50565b600081359050612fd081612faa565b92915050565b60008060408385031215612fed57612fec612a2a565b5b6000612ffb85828601612c80565b925050602061300c85828601612fc1565b9150509250929050565b600067ffffffffffffffff82111561303157613030612ddf565b5b61303a82612b3e565b9050602081019050919050565b600061305a61305584613016565b612e3f565b90508281526020810184848401111561307657613075612dda565b5b613081848285612e8b565b509392505050565b600082601f83011261309e5761309d612cd5565b5b81356130ae848260208601613047565b91505092915050565b600080600080608085870312156130d1576130d0612a2a565b5b60006130df87828801612c80565b94505060206130f087828801612c80565b935050604061310187828801612bcb565b925050606085013567ffffffffffffffff81111561312257613121612a2f565b5b61312e87828801613089565b91505092959194509250565b6000806000806040858703121561315457613153612a2a565b5b600085013567ffffffffffffffff81111561317257613171612a2f565b5b61317e87828801612ce4565b9450945050602085013567ffffffffffffffff8111156131a1576131a0612a2f565b5b6131ad87828801612ce4565b925092505092959194509250565b600080604083850312156131d2576131d1612a2a565b5b60006131e085828601612c80565b92505060206131f185828601612c80565b9150509250929050565b7f4e487b7100000000000000000000000000000000000000000000000000000000600052602260045260246000fd5b6000600282049050600182168061324257607f821691505b60208210811415613256576132556131fb565b5b50919050565b7f4552433732313a20617070726f76656420717565727920666f72206e6f6e657860008201527f697374656e7420746f6b656e0000000000000000000000000000000000000000602082015250565b60006132b8602c83612afa565b91506132c38261325c565b604082019050919050565b600060208201905081810360008301526132e7816132ab565b9050919050565b7f4552433732313a20617070726f76616c20746f2063757272656e74206f776e6560008201527f7200000000000000000000000000000000000000000000000000000000000000602082015250565b600061334a602183612afa565b9150613355826132ee565b604082019050919050565b600060208201905081810360008301526133798161333d565b9050919050565b7f4552433732313a20617070726f76652063616c6c6572206973206e6f74206f7760008201527f6e6572206e6f7220617070726f76656420666f7220616c6c0000000000000000602082015250565b60006133dc603883612afa565b91506133e782613380565b604082019050919050565b6000602082019050818103600083015261340b816133cf565b9050919050565b600081905092915050565b60006134298385613412565b9350613436838584612e8b565b82840190509392505050565b600061344f82848661341d565b91508190509392505050565b7f4552433732313a207472616e736665722063616c6c6572206973206e6f74206f60008201527f776e6572206e6f7220617070726f766564000000000000000000000000000000602082015250565b60006134b7603183612afa565b91506134c28261345b565b604082019050919050565b600060208201905081810360008301526134e6816134aa565b9050919050565b7f4552433732313a206f776e657220717565727920666f72206e6f6e657869737460008201527f656e7420746f6b656e0000000000000000000000000000000000000000000000602082015250565b6000613549602983612afa565b9150613554826134ed565b604082019050919050565b600060208201905081810360008301526135788161353c565b9050919050565b7f4552433732313a2062616c616e636520717565727920666f7220746865207a6560008201527f726f206164647265737300000000000000000000000000000000000000000000602082015250565b60006135db602a83612afa565b91506135e68261357f565b604082019050919050565b6000602082019050818103600083015261360a816135ce565b9050919050565b7f45524337323155524953746f726167653a2055524920717565727920666f722060008201527f6e6f6e6578697374656e7420746f6b656e000000000000000000000000000000602082015250565b600061366d603183612afa565b915061367882613611565b604082019050919050565b6000602082019050818103600083015261369c81613660565b9050919050565b60006136ae82612aef565b6136b88185613412565b93506136c8818560208601612b0b565b80840191505092915050565b60006136e082856136a3565b91506136ec82846136a3565b91508190509392505050565b7f4e6f7420656e6f756768204d6174696320706169640000000000000000000000600082015250565b600061372e601583612afa565b9150613739826136f8565b602082019050919050565b6000602082019050818103600083015261375d81613721565b9050919050565b7f2e00000000000000000000000000000000000000000000000000000000000000600082015250565b600061379a600183613412565b91506137a582613764565b600182019050919050565b60008190508160005260206000209050919050565b600081546137d28161322a565b6137dc8186613412565b945060018216600081146137f757600181146138085761383b565b60ff1983168652818601935061383b565b613811856137b0565b60005b8381101561383357815481890152600182019150602081019050613814565b838801955050505b50505092915050565b600061385182858761341d565b915061385c8261378d565b915061386882846137c5565b9150819050949350505050565b600061388182866137c5565b915061388d82856136a3565b915061389982846137c5565b9150819050949350505050565b7f7b226e616d65223a202200000000000000000000000000000000000000000000600082015250565b60006138dc600a83613412565b91506138e7826138a6565b600a82019050919050565b7f222c20226465736372697074696f6e223a20224120646f6d61696e206f6e207460008201527f686520766f6c747a20646f6d61696e73222c2022696d616765223a202264617460208201527f613a696d6167652f7376672b786d6c3b6261736536342c000000000000000000604082015250565b6000613974605783613412565b915061397f826138f2565b605782019050919050565b7f222c226c656e677468223a220000000000000000000000000000000000000000600082015250565b60006139c0600c83613412565b91506139cb8261398a565b600c82019050919050565b7f227d000000000000000000000000000000000000000000000000000000000000600082015250565b6000613a0c600283613412565b9150613a17826139d6565b600282019050919050565b6000613a2d826138cf565b9150613a3982866136a3565b9150613a4482613967565b9150613a5082856136a3565b9150613a5b826139b3565b9150613a6782846136a3565b9150613a72826139ff565b9150819050949350505050565b7f646174613a6170706c69636174696f6e2f6a736f6e3b6261736536342c000000600082015250565b6000613ab5601d83613412565b9150613ac082613a7f565b601d82019050919050565b6000613ad682613aa8565b9150613ae282846136a3565b915081905092915050565b60006040820190508181036000830152613b078185612b4f565b90508181036020830152613b1b8184612b4f565b90509392505050565b7f4552433732313a206f70657261746f7220717565727920666f72206e6f6e657860008201527f697374656e7420746f6b656e0000000000000000000000000000000000000000602082015250565b6000613b80602c83612afa565b9150613b8b82613b24565b604082019050919050565b60006020820190508181036000830152613baf81613b73565b9050919050565b7f4552433732313a207472616e736665722066726f6d20696e636f72726563742060008201527f6f776e6572000000000000000000000000000000000000000000000000000000602082015250565b6000613c12602583612afa565b9150613c1d82613bb6565b604082019050919050565b60006020820190508181036000830152613c4181613c05565b9050919050565b7f4552433732313a207472616e7366657220746f20746865207a65726f2061646460008201527f7265737300000000000000000000000000000000000000000000000000000000602082015250565b6000613ca4602483612afa565b9150613caf82613c48565b604082019050919050565b60006020820190508181036000830152613cd381613c97565b9050919050565b7f4e487b7100000000000000000000000000000000000000000000000000000000600052601160045260246000fd5b6000613d1482612baa565b9150613d1f83612baa565b925082821015613d3257613d31613cda565b5b828203905092915050565b6000613d4882612baa565b9150613d5383612baa565b9250827fffffffffffffffffffffffffffffffffffffffffffffffffffffffffffffffff03821115613d8857613d87613cda565b5b828201905092915050565b7f4552433732313a20617070726f766520746f2063616c6c657200000000000000600082015250565b6000613dc9601983612afa565b9150613dd482613d93565b602082019050919050565b60006020820190508181036000830152613df881613dbc565b9050919050565b7f4552433732313a207472616e7366657220746f206e6f6e20455243373231526560008201527f63656976657220696d706c656d656e7465720000000000000000000000000000602082015250565b6000613e5b603283612afa565b9150613e6682613dff565b604082019050919050565b60006020820190508181036000830152613e8a81613e4e565b9050919050565b7f4552433732314d657461646174613a2055524920717565727920666f72206e6f60008201527f6e6578697374656e7420746f6b656e0000000000000000000000000000000000602082015250565b6000613eed602f83612afa565b9150613ef882613e91565b604082019050919050565b60006020820190508181036000830152613f1c81613ee0565b9050919050565b7f4e487b7100000000000000000000000000000000000000000000000000000000600052603260045260246000fd5b6000613f5d82612baa565b91507fffffffffffffffffffffffffffffffffffffffffffffffffffffffffffffffff821415613f9057613f8f613cda565b5b600182019050919050565b7f4e487b7100000000000000000000000000000000000000000000000000000000600052601260045260246000fd5b6000613fd582612baa565b9150613fe083612baa565b925082613ff057613fef613f9b565b5b828204905092915050565b600061400682612baa565b915061401183612baa565b92508261402157614020613f9b565b5b828206905092915050565b600060408201905081810360008301526140468185612b4f565b90506140556020830184612c3f565b9392505050565b600060808201905081810360008301526140768187612b4f565b9050818103602083015261408a8186612b4f565b9050818103604083015261409e8185612b4f565b90506140ad6060830184612f80565b95945050505050565b60006140c182612baa565b91506140cc83612baa565b9250817fffffffffffffffffffffffffffffffffffffffffffffffffffffffffffffffff048311821515161561410557614104613cda565b5b828202905092915050565b7f45524337323155524953746f726167653a2055524920736574206f66206e6f6e60008201527f6578697374656e7420746f6b656e000000000000000000000000000000000000602082015250565b600061416c602e83612afa565b915061417782614110565b604082019050919050565b6000602082019050818103600083015261419b8161415f565b9050919050565b600081519050919050565b600082825260208201905092915050565b60006141c9826141a2565b6141d381856141ad565b93506141e3818560208601612b0b565b6141ec81612b3e565b840191505092915050565b600060808201905061420c6000830187612c3f565b6142196020830186612c3f565b6142266040830185612f80565b818103606083015261423881846141be565b905095945050505050565b60008151905061425281612a60565b92915050565b60006020828403121561426e5761426d612a2a565b5b600061427c84828501614243565b91505092915050565b7f4552433732313a206d696e7420746f20746865207a65726f2061646472657373600082015250565b60006142bb602083612afa565b91506142c682614285565b602082019050919050565b600060208201905081810360008301526142ea816142ae565b9050919050565b7f4552433732313a20746f6b656e20616c7265616479206d696e74656400000000600082015250565b6000614327601c83612afa565b9150614332826142f1565b602082019050919050565b600060208201905081810360008301526143568161431a565b905091905056fe0a2d2d2d2d2d2d2d2d2d2d2d2d2d2d2d2d2d2d2d2d2d2d2d2d2d2d2d2d2d2d2d2d2d2d2d2d2d2d2d2d2d2d2d2d2d2d2d2d2d2d2d2d2d2d2d2d5265676973746572696e672025732e2573206f6e2074686520636f6e7472616374207769746820746f6b656e49442025642d2d2d2d2d2d2d2d2d2d2d2d2d2d2d2d2d2d2d2d2d2d2d2d2d2d2d2d2d2d2d2d2d2d2d2d2d2d2d2d2d2d2d2d2d2d2d2d2d2d2d2d2d2d2d2d0a4142434445464748494a4b4c4d4e4f505152535455565758595a6162636465666768696a6b6c6d6e6f707172737475767778797a303132333435363738392b2fa264697066735822122027c3fe4b4d0a1d59302a5fd0d0fb9972730a66117fcbacd068beccc760d7cbe564736f6c634300080a00333c73766720786d6c6e733d22687474703a2f2f7777772e77332e6f72672f323030302f737667222077696474683d2232373022206865696768743d22323730222066696c6c3d226e6f6e65223e3c706174682066696c6c3d2275726c282342292220643d224d302030683237307632373048307a222f3e3c646566733e3c66696c7465722069643d22412220636f6c6f722d696e746572706f6c6174696f6e2d66696c746572733d2273524742222066696c746572556e6974733d227573657253706163654f6e55736522206865696768743d22323730222077696474683d22323730223e3c666544726f70536861646f772064783d2230222064793d22312220737464446576696174696f6e3d22322220666c6f6f642d6f7061636974793d222e323235222077696474683d223230302522206865696768743d2232303025222f3e3c2f66696c7465723e3c2f646566733e3c7061746820643d224d37322e3836332034322e393439632d2e3636382d2e3338372d312e3432362d2e35392d322e3139372d2e3539732d312e3532392e3230342d322e3139372e35396c2d31302e30383120362e3033322d362e383520332e3933342d31302e30383120362e303332632d2e3636382e3338372d312e3432362e35392d322e3139372e3539732d312e3532392d2e3230342d322e3139372d2e35396c2d382e3031332d342e37323161342e353220342e35322030203020312d312e3538392d312e363136632d2e3338342d2e3636352d2e3539342d312e3431382d2e3630382d322e313837762d392e3331632d2e3031332d2e3737352e3138352d312e3533382e3537322d322e32303861342e323520342e323520302030203120312e3632352d312e3539356c372e3838342d342e3539632e3636382d2e33383720312e3432362d2e353920322e3139372d2e353973312e3532392e32303420322e3139372e35396c372e38383420342e353961342e353220342e353220302030203120312e35383920312e363136632e3338342e3636352e35393420312e3431382e36303820322e31383776362e3033326c362e38352d342e303635762d362e303332632e3031332d2e3737352d2e3138352d312e3533382d2e3537322d322e32303861342e323520342e32352030203020302d312e3632352d312e3539354c34312e3435362032342e3539632d2e3636382d2e3338372d312e3432362d2e35392d322e3139372d2e3539732d312e3532392e3230342d322e3139372e35396c2d31342e38363420382e36353561342e323520342e32352030203020302d312e36323520312e353935632d2e3338372e36372d2e35383520312e3433342d2e35373220322e3230387631372e343431632d2e3031332e3737352e31383520312e3533382e35373220322e32303861342e323520342e323520302030203020312e36323520312e3539356c31342e38363420382e363535632e3636382e33383720312e3432362e353920322e3139372e353973312e3532392d2e32303420322e3139372d2e35396c31302e3038312d352e39303120362e38352d342e3036352031302e3038312d352e393031632e3636382d2e33383720312e3432362d2e353920322e3139372d2e353973312e3532392e32303420322e3139372e35396c372e38383420342e353961342e353220342e353220302030203120312e35383920312e363136632e3338342e3636352e35393420312e3431382e36303820322e31383776392e333131632e3031332e3737352d2e31383520312e3533382d2e35373220322e32303861342e323520342e32352030203020312d312e36323520312e3539356c2d372e38383420342e373231632d2e3636382e3338372d312e3432362e35392d322e3139372e3539732d312e3532392d2e3230342d322e3139372d2e35396c2d372e3838342d342e353961342e353220342e35322030203020312d312e3538392d312e363136632d2e3338352d2e3636352d2e3539342d312e3431382d2e3630382d322e313837762d362e3033326c2d362e383520342e30363576362e303332632d2e3031332e3737352e31383520312e3533382e35373220322e32303861342e323520342e323520302030203020312e36323520312e3539356c31342e38363420382e363535632e3636382e33383720312e3432362e353920322e3139372e353973312e3532392d2e32303420322e3139372d2e35396c31342e3836342d382e363535632e3635372d2e33393420312e3230342d2e393520312e3538392d312e363136732e3539342d312e3431382e3630392d322e3138375635352e353338632e3031332d2e3737352d2e3138352d312e3533382d2e3537322d322e32303861342e323520342e32352030203020302d312e3632352d312e3539356c2d31342e3939332d382e3738367a222066696c6c3d2223666666222f3e3c646566733e3c6c696e6561724772616469656e742069643d2242222078313d2230222079313d2230222078323d22323730222079323d2232373022206772616469656e74556e6974733d227573657253706163654f6e557365223e3c73746f702073746f702d636f6c6f723d2223636235656565222f3e3c73746f70206f66667365743d2231222073746f702d636f6c6f723d2223306364376534222073746f702d6f7061636974793d222e3939222f3e3c2f6c696e6561724772616469656e743e3c2f646566733e3c7465787420783d2233322e352220793d223233312220666f6e742d73697a653d223237222066696c6c3d2223666666222066696c7465723d2275726c282341292220666f6e742d66616d696c793d22506c7573204a616b617274612053616e732c44656a6156752053616e732c4e6f746f20436f6c6f7220456d6f6a692c4170706c6520436f6c6f7220456d6f6a692c73616e732d73657269662220666f6e742d7765696768743d22626f6c64223e",
  "linkReferences": {},
  "deployedLinkReferences": {}
}